{
  "contractName": "LinkedList",
  "abi": [
    {
      "constant": true,
      "inputs": [],
      "name": "length",
      "outputs": [
        {
          "name": "",
          "type": "uint256"
        }
      ],
      "payable": false,
      "stateMutability": "view",
      "type": "function"
    },
    {
      "constant": true,
      "inputs": [],
      "name": "head",
      "outputs": [
        {
          "name": "",
          "type": "bytes32"
        }
      ],
      "payable": false,
      "stateMutability": "view",
      "type": "function"
    },
    {
      "constant": true,
      "inputs": [],
      "name": "listName",
      "outputs": [
        {
          "name": "",
          "type": "string"
        }
      ],
      "payable": false,
      "stateMutability": "view",
      "type": "function"
    },
    {
      "constant": true,
      "inputs": [
        {
          "name": "",
          "type": "bytes32"
        }
      ],
      "name": "nodes",
      "outputs": [
        {
          "name": "next",
          "type": "bytes32"
        },
        {
          "name": "data",
          "type": "string"
        }
      ],
      "payable": false,
      "stateMutability": "view",
      "type": "function"
    },
    {
      "anonymous": false,
      "inputs": [
        {
          "indexed": false,
          "name": "head",
          "type": "bytes32"
        },
        {
          "indexed": false,
          "name": "data",
          "type": "string"
        },
        {
          "indexed": false,
          "name": "next",
          "type": "bytes32"
        }
      ],
      "name": "EntryAdded",
      "type": "event"
    },
    {
      "constant": false,
      "inputs": [
        {
          "name": "_listName",
          "type": "string"
        }
      ],
      "name": "initialize",
      "outputs": [],
      "payable": false,
      "stateMutability": "nonpayable",
      "type": "function"
    },
    {
      "constant": false,
      "inputs": [
        {
          "name": "_data",
          "type": "string"
        }
      ],
      "name": "addNode",
      "outputs": [
        {
          "name": "",
          "type": "bool"
        }
      ],
      "payable": false,
      "stateMutability": "nonpayable",
      "type": "function"
    },
    {
      "constant": false,
      "inputs": [],
      "name": "popHead",
      "outputs": [
        {
          "name": "",
          "type": "bool"
        }
      ],
      "payable": false,
      "stateMutability": "nonpayable",
      "type": "function"
    },
    {
      "constant": true,
      "inputs": [
        {
          "name": "_node",
          "type": "bytes32"
        }
      ],
      "name": "getNodeExternal",
      "outputs": [
        {
          "name": "",
          "type": "bytes32"
        },
        {
          "name": "",
          "type": "string"
        }
      ],
      "payable": false,
      "stateMutability": "view",
      "type": "function"
    }
  ],
  "bytecode": "0x608060405234801561001057600080fd5b50610d2f806100206000396000f3fe60806040526004361061008e576000357c0100000000000000000000000000000000000000000000000000000000900463ffffffff1680630e435c29146100935780631f7b6d321461014e5780638994dd8e146101795780638f7dcfa314610259578063a469b1a414610284578063d86e697d14610314578063eaa70991146103cf578063f62d1888146103fe575b600080fd5b34801561009f57600080fd5b506100cc600480360360208110156100b657600080fd5b81019080803590602001909291905050506104c6565b6040518083815260200180602001828103825283818151815260200191508051906020019080838360005b838110156101125780820151818401526020810190506100f7565b50505050905090810190601f16801561013f5780820380516001836020036101000a031916815260200191505b50935050505060405180910390f35b34801561015a57600080fd5b5061016361059c565b6040518082815260200191505060405180910390f35b34801561018557600080fd5b5061023f6004803603602081101561019c57600080fd5b81019080803590602001906401000000008111156101b957600080fd5b8201836020820111156101cb57600080fd5b803590602001918460018302840111640100000000831117156101ed57600080fd5b91908080601f016020809104026020016040519081016040528093929190818152602001838380828437600081840152601f19601f8201169050808301925050505050505091929192905050506105a2565b604051808215151515815260200191505060405180910390f35b34801561026557600080fd5b5061026e61075a565b6040518082815260200191505060405180910390f35b34801561029057600080fd5b50610299610760565b6040518080602001828103825283818151815260200191508051906020019080838360005b838110156102d95780820151818401526020810190506102be565b50505050905090810190601f1680156103065780820380516001836020036101000a031916815260200191505b509250505060405180910390f35b34801561032057600080fd5b5061034d6004803603602081101561033757600080fd5b81019080803590602001909291905050506107fe565b6040518083815260200180602001828103825283818151815260200191508051906020019080838360005b83811015610393578082015181840152602081019050610378565b50505050905090810190601f1680156103c05780820380516001836020036101000a031916815260200191505b50935050505060405180910390f35b3480156103db57600080fd5b506103e46108ba565b604051808215151515815260200191505060405180910390f35b34801561040a57600080fd5b506104c46004803603602081101561042157600080fd5b810190808035906020019064010000000081111561043e57600080fd5b82018360208201111561045057600080fd5b8035906020019184600183028401116401000000008311171561047257600080fd5b91908080601f016020809104026020016040519081016040528093929190818152602001838380828437600081840152601f19601f820116905080830192505050505050509192919290505050610999565b005b60006060603360008481526020019081526020016000206000015460336000858152602001908152602001600020600101808054600181600116156101000203166002900480601f01602080910402602001604051908101604052809291908181526020018280546001816001161561010002031660029004801561058c5780601f106105615761010080835404028352916020019161058c565b820191906000526020600020905b81548152906001019060200180831161056f57829003601f168201915b5050505050905091509150915091565b60345481565b60006105ac610b79565b6040805190810160405280603554815260200184815250905060008160200151603454426040516020018084805190602001908083835b60208310151561060857805182526020820191506020810190506020830392506105e3565b6001836020036101000a0380198251168184511680821785525050505050509050018381526020018281526020019350505050604051602081830303815290604052805190602001209050816033600083815260200190815260200160002060008201518160000155602082015181600101908051906020019061068d929190610b96565b509050506001603454016034819055507ffecb614bfc5235792e3468f7df8201658b767ec523d3f7be2c064db1e4f8d9c3603554836020015184600001516040518084815260200180602001838152602001828103825284818151815260200191508051906020019080838360005b838110156107175780820151818401526020810190506106fc565b50505050905090810190601f1680156107445780820380516001836020036101000a031916815260200191505b5094505050505060405180910390a15050919050565b60355481565b60368054600181600116156101000203166002900480601f0160208091040260200160405190810160405280929190818152602001828054600181600116156101000203166002900480156107f65780601f106107cb576101008083540402835291602001916107f6565b820191906000526020600020905b8154815290600101906020018083116107d957829003601f168201915b505050505081565b6033602052806000526040600020600091509050806000015490806001018054600181600116156101000203166002900480601f0160208091040260200160405190810160405280929190818152602001828054600181600116156101000203166002900480156108b05780601f10610885576101008083540402835291602001916108b0565b820191906000526020600020905b81548152906001019060200180831161089357829003601f168201915b5050505050905082565b600080603454111515610935576040517f08c379a000000000000000000000000000000000000000000000000000000000815260040180806020018281038252601f8152602001807f6572726f722074686973206c696e6b6564206c69737420697320656d7074790081525060200191505060405180910390fd5b60006033600060355481526020019081526020016000206000015490506033600060355481526020019081526020016000206000808201600090556001820160006109809190610c16565b5050806035819055506001603454036034819055505090565b600060019054906101000a900460ff16806109b857506109b7610b68565b5b806109cf57506000809054906101000a900460ff16155b1515610a69576040517f08c379a000000000000000000000000000000000000000000000000000000000815260040180806020018281038252602e8152602001807f436f6e747261637420696e7374616e63652068617320616c726561647920626581526020017f656e20696e697469616c697a656400000000000000000000000000000000000081525060400191505060405180910390fd5b60008060019054906101000a900460ff1690506001600060016101000a81548160ff02191690831515021790555060016000806101000a81548160ff0219169083151502179055506000825110151515610b2b576040517f08c379a000000000000000000000000000000000000000000000000000000000815260040180806020018281038252600f8152602001807f6572726f72206e6565642064617461000000000000000000000000000000000081525060200191505060405180910390fd5b60006034819055508160369080519060200190610b49929190610c5e565b5080600060016101000a81548160ff0219169083151502179055505050565b600080303b90506000811491505090565b604080519081016040528060008019168152602001606081525090565b828054600181600116156101000203166002900490600052602060002090601f016020900481019282601f10610bd757805160ff1916838001178555610c05565b82800160010185558215610c05579182015b82811115610c04578251825591602001919060010190610be9565b5b509050610c129190610cde565b5090565b50805460018160011615610100020316600290046000825580601f10610c3c5750610c5b565b601f016020900490600052602060002090810190610c5a9190610cde565b5b50565b828054600181600116156101000203166002900490600052602060002090601f016020900481019282601f10610c9f57805160ff1916838001178555610ccd565b82800160010185558215610ccd579182015b82811115610ccc578251825591602001919060010190610cb1565b5b509050610cda9190610cde565b5090565b610d0091905b80821115610cfc576000816000905550600101610ce4565b5090565b9056fea165627a7a723058209d5d613cdb6f4132e51d9ed8f520d498141190f4020f1e795b67bc21c85288cd0029",
  "source": "pragma solidity >=0.4.24 <0.6.0;\n\nimport \"zos-lib/contracts/Initializable.sol\";\n\ncontract LinkedList is Initializable {\n\n    event EntryAdded(bytes32 head, string data, bytes32 next);\n\n    struct Node {\n        bytes32 next;\n        string data;\n    }\n\n    mapping(bytes32 => Node) public nodes;\n\n    uint public length;\n\n    bytes32 public head;\n\n    string public listName;\n\n// Reminder that this contract does not need an initializer function, but it's here as an example that \n// most Initializer contracts need an initialize function\n    function initialize(string memory _listName) initializer public {\n        require(bytes(_listName).length >= 0, \"error need data\");\n        length = 0;\n        listName = _listName;\n    }\n\n    function addNode(string memory _data) public returns (bool) {\n        Node memory node = Node(head, _data);\n        bytes32 id = keccak256(abi.encodePacked(node.data, length, now));\n        nodes[id] = node;\n        length = length+1;\n\n        emit EntryAdded(head, node.data, node.next);\n    }\n\n    function popHead() public returns (bool) {\n        require(length > 0, \"error this linked list is empty\");\n        bytes32 newHead = nodes[head].next;\n        delete nodes[head];\n        head = newHead;\n        length = length-1;\n    }\n\n    function getNodeExternal(bytes32 _node) external view returns (bytes32, string memory) {\n        return (nodes[_node].next, nodes[_node].data);\n    }\n}\n",
  "sourcePath": "/Users/philliplorenzo/XYOTestAndPractice/LinkedList/contracts/LinkedList.sol",
  "compiler": {
    "name": "solc",
    "version": "0.5.0+commit.1d4f565a.Emscripten.clang"
  },
  "schemaVersion": "3.0.2",
  "updatedAt": "2019-02-16T22:49:13.708Z",
  "devdoc": {
    "methods": {}
  },
  "userdoc": {
    "methods": {}
  }
}